:020000040800F2
:1000000038090020550200085B5100084F20000805
:100010005951000885060008C55600080000000078
:100020000000000000000000000000006552000811
:1000300087060008000000007D510008ED5200080E
:100040006F0200086F0200086F0200086F020008CC
:100050006F0200086F0200086F0200086F020008BC
:100060006F0200086F0200086F0200086F020008AC
:100070006F0200086F0200086F0200086F0200089C
:100080006F0200086F0200086F0200086F0200088C
:100090006F0200086F0200086F0200086F0200087C
:1000A0006F0200086F0200086F0200086F0200086C
:1000B0006F0200086F0200086F0200086F0200085C
:1000C0006F0200086F0200086F0200086F0200084C
:1000D0006F020008595600086F0200086F020008FE
:1000E0006F0200086F0200086F0200086F0200082C
:1000F0006F0200086F0200086F0200086F0200081C
:100100006F0200086F0200086F0200086F0200080B
:100110006F0200086F0200086F0200086F020008FB
:100120006F0200086F0200086F0200086F020008EB
:100130006F0200086F0200086F0200086F020008DB
:100140006F0200086F0200086F0200086F020008CB
:100150006F0200086F0200086F0200086F020008BB
:100160006F0200086F0200086F0200086F020008AB
:100170006F0200086F0200086F0200080000000014
:100180006F0200086F0200086F0200086F0200088B
:100190006F0200086F0200086F0200086F0200087B
:1001A0006F0200086F0200086F02000800F002F8FA
:1001B00000F041F80AA090E8000C82448344AAF1C0
:1001C0000107DA4501D100F036F8AFF2090EBAE8BE
:1001D0000F0013F0010F18BFFB1A43F0010318477B
:1001E00084580000A4580000103A24BF78C878C191
:1001F000FAD8520724BF30C830C144BF04680C602D
:10020000704700000023002400250026103A28BF74
:1002100078C1FBD8520728BF30C148BF0B60704778
:10022000782900F07980002070471FB505F0F8FBB1
:100230001FBD10B510BD00F059F91146FFF7F5FFCD
:1002400005F07EFA00F077F903B4FFF7F2FF03BC84
:1002500005F039FA0948804709480047FEE7FEE7FC
:10026000FEE7FEE7FEE7FEE7FEE7FEE7FEE7FEE766
:1002700004480549054A064B70470000F152000842
:10028000AD0100083803002038090020380500209F
:1002900038050020704700000FB4044910B503AAC8
:1002A000029800F0F5F810BC5DF814FB2000002067
:1002B0002DE9F0410E460446002020622046E16808
:1002C000884730B3252805D0D4E901219047206A1A
:1002D000401CF2E7E168204600278847050018D057
:1002E000A5F14100192802D820354FF400673246A5
:1002F000294620462760FFF793FF40B1012804D02C
:10030000F61D26F007060836D8E7361DD6E728463C
:10031000DAE7206ABDE8F08170B504460D46214653
:100320001068AFF300802188090502D50F4A7A448E
:1003300002E00E4A7A440E32002104F1240305E063
:1003400000F00F060009965D5E54491C0028F7D1A5
:1003500020780023000704D5702D02D009B10223B4
:1003600011322046BDE8704000F038B80857000050
:1003700010B5203AC0F00B80B1E81850203AA0E840
:100380001850B1E81850A0E81850BFF4F5AF5FEA74
:10039000027C24BFB1E81850A0E8185044BF18C927
:1003A00018C0BDE810405FEA827C24BF51F8043BCE
:1003B00040F8043B08BF7047D20728BF31F8023B22
:1003C00048BF11F8012B28BF20F8023B48BF00F8B6
:1003D000012B704770477047704770472DE9F04711
:1003E0000D4699469246044600F1240801688806A5
:1003F00004D5E06921F01001216000E00120A8424D
:1004000001DD471B00E00027A1697A1902EB090012
:10041000081AA0612078C00602D42046AFF30080FD
:10042000002608E0D4E901211AF806009047206A66
:10043000401C761C20624E45F4DB2078C0060AD5AD
:100440002046AFF3008006E0D4E901213020904738
:10045000206A401C2062381EA7F10107F4DC07E087
:10046000D4E9012118F805009047206A401C206259
:10047000281EA5F10105F3DC2046AFF300802078AB
:10048000000602D50220BDE8F0870120FBE700004E
:10049000074B70B50D467B4400F011F80446284622
:1004A00000F020F810B14FF0FF3070BD204670BD55
:1004B0009352000001694A1C02610878704700B538
:1004C0008FB0CDE901310021059105497944CDE98D
:1004D000031011466846FFF7EBFE0FB000BD0000A9
:1004E000E5FFFFFF007B00F080007047754600F0DD
:1004F0002BF8AE4605006946534620F007008546B6
:1005000018B020B5FFF7B4FEBDE820404FF000065C
:100510004FF000074FF000084FF0000B21F00701EB
:10052000AC46ACE8C009ACE8C009ACE8C009ACE82E
:10053000C0098D46704710B50446AFF300802046D1
:10054000BDE81040FFF780BE00487047D40200208D
:100550004A4910B5D1F8042322F44032C1F80423EB
:10056000D1F8042343681A43C1F8042301684A6898
:1005700022F480724A6001684A68036942EA0322F1
:100580004A6001684A6822F040724A6001684A681D
:1005900083681A434A6001688A6822F400628A60AC
:1005A00001688A68C3681A438A60C16A6FF0706222
:1005B000D14201688A6822F070628A6001688A68A4
:1005C0000CD0C36A1A438A6001688A6822F04052DC
:1005D0008A6001688A68036B1A4301E022F0405286
:1005E0008A6001688A6822F002028A6001688A686B
:1005F000836942EA43028A60416A002901684A68C5
:1006000015D042F400624A6001684A6822F46042F0
:100610004A6001684B684FF46044826A94FAA4F41B
:10062000B4FA84F4521EA24013434B6002E022F459
:1006300000624A600168CA6A22F47002CA620168F4
:10064000CA6A038C0E4C04EB03531A43CA62016856
:100650008A6822F400728A6001688A68C36942EA83
:1006600043228A6001688A6822F480628A60016895
:100670008A68406942EA8020886010BD00200140FD
:100680000000F0FFFEE7704770B5B3F5804F05D06E
:100690006FF0704140F82210002070BD50F82230F9
:1006A000084C2340D1E9004544EA05148D688E8941
:1006B0002D0245EA064589692C430C431C4340F84A
:1006C0002240E9E70000F0CFF0B50C6850F8245064
:1006D000194A1540D1E90123D1E903671A433E4382
:1006E00032434E6932438E693243CE6932430E6AD9
:1006F00032434E6A32438E6A3243CE6A3243CE6B05
:1007000032430E6B32434E6B32432A43082B01D1E6
:1007100042F0400240F824204A6BB2F5801F08D115
:100720000A6832B14FF480720A61044902681143C9
:1007300001600020F0BD00008000E0FF000110001B
:10074000F0B500EB820253688E8903F04044D1E992
:10075000003543EA05138D682D0245EA06452B4313
:100760000E8A0D4D05EB065633430E7D6F0107EBE8
:10077000066633438E693343234353600268D202D3
:1007800007D54268098A22F4700205EB0151114332
:1007900041600020F0BD00000000F0FF30B5D1E95D
:1007A00001231A43D1E9033423431A434B690D68EB
:1007B0001A438B691A43D1E90734012D496A056848
:1007C0006FF30E0505D01A4322430A432A43026001
:1007D00008E0234329430B43416803606FF30E0194
:1007E0000A434260002030BD426942EA4101416152
:1007F00000207047F8B514460546D1E900021043C1
:100800008A686FF01F03C96803EB421242EA412174
:1008100008430090286100F0E5FA064609E0601CF4
:1008200007D024B100F0DEFA801BA04201D90320DA
:10083000F8BDA8698006F2D40020F8BDF0B56FF0CD
:100840000F05D1E9003405EB04145B1E2E01234390
:100850008C682F0306EB04244FEA054C23430D8AD2
:100860008E8ACC68097E4FF07F4E07EB05450CEB76
:1008700006560EEB0161012A0CD082683F1107EB8E
:10088000043423432B43334302F070420B4313439E
:1008900083600FE0C2682B430B4302F07042816813
:1008A000134301F070422103A1F5805131431143FC
:1008B000C36081600020F0BD1FB569460090012033
:1008C00001900720029000200390084800F028F8CB
:1008D000064800F04BF90A21044800F011F90348DA
:1008E00000F0C8F804B080B210BD000090020020F3
:1008F0002DE9F04100250E4607462C4608E0384613
:10090000FFF7DAFF0544052004F0E8FE641CE4B2BA
:10091000B442F4D3B5FBF6F080B2BDE8F08100003C
:1009200078B50024009490F83C20012A19D00122C7
:1009300080F83C200A6807250368092A13D9DE6875
:100940000A3A02EB42029540AE43DE600A788B68B9
:100950000A3A02EB420293400268D5682B43D36007
:1009600010E0022078BD1E6902EB42029540AE43C2
:100970001E610A788B6802EB420293400268156997
:100980002B4313614A681F25072A13D203685E6B45
:10099000521E02EB82029540AE435E630A8893B218
:1009A0000A79521E02EB820293400268556B2B4378
:1009B000536327E003680D2A12D21E6BD21F02EB8D
:1009C00082029540AE431E630A8893B20A79D21F11
:1009D00002EB820293400268156B2B43136311E014
:1009E000DE6A0D3A02EB82029540AE43DE620A886F
:1009F00093B20A790D3A02EB820293400268D56AFB
:100A00002B43D362174B02689A4208D10A68122A14
:100A100005D1D3F8042342F48002C3F8042302680A
:100A20009A421BD1104D0A68AA4201D0112A15D151
:100A3000D3F8042342F40002C3F804230968A9424E
:100A40000CD10A490A4A0968B1FBF2F101EB8101B4
:100A5000490000E0491E00910029FBD180F83C408C
:100A6000002078BD0020014012000010000000208E
:100A700040420F000068C06C704770B5040004D09D
:100A800094F83D00002510B106E0012070BD84F807
:100A90003C50204600F00EF8022084F83D0020462D
:100AA000FFF756FD2564012084F83D0084F83C5092
:100AB000002070BD104800B5026887B0002142F4E4
:100AC00080720260006800F4807005900A48143853
:100AD000026842F001020260006800F00100059027
:100AE000202000900320CDE901016946034800F071
:100AF00081F807B000BD0000443802400000024009
:100B00002DE9F041044600680D4681684FF000076A
:100B100049050AD58068C00507D5042084F83D0042
:100B200084F83C700120BDE8F08100F05BF90646D6
:100B30000DE0681C0BD025B100F054F9801BA842D1
:100B400005D9032084F83D0084F83C70EBE7206869
:100B500000688007EDD594F83D00252804D01520C5
:100B600084F83D000020DEE73520F9E708B50022D3
:100B7000009290F83C1001290ED0012180F83C1021
:100B800090F83D10222909D0122180F83D1001680B
:100B90008B68DB0704D013E0022008BD3221F4E7A4
:100BA0008B6843F001038B600F49104B0968B1FB60
:100BB000F3F101EB410100E0491E00910029FBD156
:100BC0000B4980F83C20D1F804230068D20601D0FC
:100BD000884207D1816811F0405F03D1816841F0FC
:100BE00080418160002008BD0000002040420F00CD
:100BF000002001402DE9F84FDFF8A091002209F113
:100C0000040A0AF1040B4FF00F080BF1040E012641
:100C10000B6896403340B34271D14C68022C01D02E
:100C2000122C11D1D40800EB84073D6A5407E40E5E
:100C300008FA04FC25EA0C05D1F810C00CFA04FCF3
:100C40004CEA050CC7F820C007685400032591F84A
:100C500004C0A5400CF0030CAF430CFA04FC4CEAB2
:100C6000070CC0F800C04F68012F05D0022F03D039
:100C7000112F01D0122F11D18768D1F80CC0AF43CA
:100C80000CFA04FC4CEA070CC0F808C04768B743EC
:100C90000E79C6F3001696403E434660C668AE43E2
:100CA0008D68A5403543C5604C68E4006FD53C4C69
:100CB000256845F480452560246822F0030504F486
:100CC00080440094374C2E19D6F808789407250FE5
:100CD00008FA05F4A743344CA04201D100242EE0C9
:100CE000324CA04201D1012429E0314CA04201D173
:100CF000022424E02F4CA04202D103241FE046E04E
:100D00002D4CA04201D1042419E02C4CA04201D169
:100D1000052414E02A4CA04201D106240FE0294CFE
:100D2000A04201D107240AE0274CA04201D10824A7
:100D300005E0264CA04201D1092400E00A24AC4081
:100D40003C43C6F80848D9F800404D464E689C43DD
:100D5000F60300D51C432C60DAF8004055464E6877
:100D60009C43B60300D51C432C60DBF800405D4675
:100D70004E689C43F60200D51C432C60DEF8004010
:100D800075464E689C43B60200D51C432C60521C2D
:100D9000102AFFF43CAFBDE8F88F0000003C014092
:100DA000443802400030014000000240000402408C
:100DB00000080240000C02400010024000140240F3
:100DC00000180240001C02400020024000240240A3
:100DD0000069084000D0012070470AB18161704766
:100DE0000904FBE701480068704700001400002078
:100DF00002480168491C016070470000140000208F
:100E00000B4810B5016841F400710160016841F4BC
:100E100080610160016841F480710160052000F08B
:100E2000BFF90F2000F006F800F08AF9002010BD8D
:100E3000003C024010B5044600F060FC4FF47A71AB
:100E4000B0FBF1F000F094FF00222146501E00F0AC
:100E500087F9002010BD2DE9F041044690F8A0006C
:100E600015460F4601281DD0012684F8A0600220F7
:100E700084F8A10005EB850000EBC50004EB8000C1
:100E800034223830FFF774FA2A463946204604F0F7
:100E900095F82068466284F8A160002084F8A000DC
:100EA000BDE8F0810220FBE770B5040004D094F89F
:100EB000A100002510B106E0012070BD84F8A0500B
:100EC000204600F06FF8022084F8A10020688169B4
:100ED00021F070418161D4E901100143D4E903029A
:100EE0001043014320688269114381612068826850
:100EF0002B490A408260A08A020420688368A669A0
:100F00003343134383602068C2680A40C260A08BE9
:100F100002042068C368266A33431343C360206811
:100F200002690A400261A08C020420680369A66A73
:100F3000334313430361206842690A404261A08D34
:100F4000010420684269236B1A430A43426194F802
:100F50003500020294F8360001042068C36A03F0E9
:100F60007F43C3622068C36A94F8346011433343FB
:100F70000B43C3622068416B41F004014163206868
:100F8000416B41F0020141632068816941F0010138
:100F90008161C4F8A450012084F8A100002070BD34
:100FA00000F800F030B5364887B00025016841F000
:100FB00080610160006800F080600590304814385E
:100FC000016841F400010160016801F4000105912C
:100FD000016841F002010160016801F00201059120
:100FE000016841F020010160016801F020010591D4
:100FF000016841F040010160016801F04001059184
:10100000016841F080010160016801F080010591F3
:10101000016841F4807101600068032400F480706D
:101020000590202000900120CDE90204019069463E
:101030001448FFF7DFFD4FF4806000900220CDE9F7
:1010400001050E20CDE9034069460F48FFF7D2FDA8
:101050004FF40C60009069460C48FFF7CBFD4FF44D
:101060007E40009069460A48FFF7C4FD40F2F760F1
:10107000009069460748FFF7BDFD07B030BD00008E
:1010800044380240000402400014024000180240AC
:10109000001C02400020024070B5044690F8A000F9
:1010A0000E46012820D0012584F8A050022084F8A3
:1010B000A10003EB830000EBC30004EB800141F8C7
:1010C000386F886A3044C1E90102C86A1044C860B8
:1010D0001A46204603F072FF2068456284F8A1504A
:1010E000002084F8A00070BD022070BD2DE9F04101
:1010F000044690F8A0000F4601281FD0012584F86F
:10110000A050022084F8A10003EB830000EBC30091
:1011100004EB80010026E1E90E672046C1E9026286
:10112000C1E90A721A4603F049FF2068456284F853
:10113000A15084F8A0600020BDE8F0810220FBE708
:1011400008B50020009008BD00F01F020121914069
:101150004009800000F1E020C0F800117047000055
:10116000F0B40E4B1B68C3F30223C3F10704042C35
:1011700000D904241D1D072D01D2002300E0DB1E31
:10118000012606FA04F56D1E0D409D409E40761E18
:10119000164045EA0601F0BC03F0E0BF0CED00E0AC
:1011A000064A00F0070110684FF6FF03184040EAB6
:1011B0000120034908431060704700000CED00E077
:1011C0000000FA052DE9F8431D48016841F08051FF
:1011D00001600068012700F080500090380490FA08
:1011E000A0F0DFF86080B0FA80F048F82070FFF7D8
:1011F000F9FD04464FF47A75134E04E0FFF7F2FD53
:10120000001BA84213D87068C003F7D54FF4003014
:1012100090FAA0F0B0FA80F048F82070FFF7E2FDF5
:10122000044607E0FFF7DEFD001BA84202D90320B9
:10123000BDE8F88370688003F4D50020F8E700006B
:101240004038024000000E42007000402DE9F84F87
:1012500004460068DFF878829E4DC10747F6C07AE1
:101260004FF0E0464FF0010B4FF0000901D180072D
:101270004BD59949C1F86890FFF7B4FD074604E0E3
:10128000FFF7B0FDC01B64287ED828680001F7D4A2
:1012900020789249C0070DD09AFAAAF26068B2FA93
:1012A00082F2904096FAA6F3A268B3FA83F39A40CA
:1012B000104308602078800718D5086896FAA6F2CF
:1012C00000F0E040B2FA82F2D0406268237B9201E3
:1012D00042EA036242EA00700860D8F80010E2694E
:1012E00021F01F01521E1143C8F800107A49C1F8BD
:1012F00068B0FFF777FD074604E0FFF773FDC01BFA
:10130000642841D828680001F7D52068410701D436
:10131000000776D57049C1F87090FFF763FD074666
:1013200004E0FFF75FFDC01B64282DD82868C04388
:101330008000F6D520786A4F40074FF0706C29D5B1
:10134000386896FAA6F100F0E040B1FA81F1C840A1
:101350009AFAAAF22169B2FA82F291409CFAACF3AD
:101360006269B3FA83F39A40114396FAA6F2B2FA8D
:1013700082F2904001433960D8F800106FF0FF030B
:1013800021F4F851226A00E079E003EB02221143D4
:10139000C8F800102078000723D538689CFAACF113
:1013A00000F07060B1FA81F1C8409AFAAAF221699E
:1013B000B2FA82F291409CFAACF2B2FA82F2904018
:1013C000014396FAA6F2A069B2FA82F29040014374
:1013D0003960D8F80010626A21F440311143C8F82E
:1013E00000103D49C1F870B0FFF7FCFC064604E070
:1013F000FFF7F8FC801B642841D82868C0438000B0
:10140000F6D42078800651D532484F4640300168E6
:1014100041F0805101600068324E00F08050009031
:10142000306840F480703060FFF7DCFC054604E073
:10143000FFF7D8FC401B642821D83068C005F7D5D9
:10144000264E143E3068218D00F4407001F4407146
:1014500088422BD03068244920F44070C1F800B095
:101460000F603060800710D5FFF7BCFC054641F2E5
:10147000883707E0FFF7B6FC401BB84202D90320CB
:10148000BDE8F88F30688007F4D5A06A1149C0F331
:1014900001220831032A13D0086820F4F8100860EC
:1014A0003068218DC1F30B01084330602078C006FD
:1014B00004D50E4994F82C00C1F8E0010020DFE7C4
:1014C0000A680B4B22F4F812184002430A60E7E75F
:1014D0008C38024000380240000047428438024005
:1014E0008838024000700040400E474200104742DA
:1014F000FFFCFF0F2DE9F05FDFF8F8A104460F466F
:10150000DAF80000DFF8F08100F00F02C8B27A4983
:10151000814641F2883608F10808BA4261D2024693
:101520008AF80020DAF8000000F00F00B8427DD100
:101530002078800707D5D8F80020A36822F0F002B1
:101540001A43C8F800202078C0072DD06068012811
:101550001AD002281BD0032819D00968890700294E
:1015600064DAD8F80010474621F003010143C8F8B7
:101570000010FFF737FC0546606801280FD00228ED
:1015800018D003281CD027E009688903E7E7096819
:101590008901E4E7FFF726FC401BB04258D83868C1
:1015A000C0F381000128F5D188E0FFF71BFC401B48
:1015B000B0424DD83868C0F381000228F5D17DE0F3
:1015C0003868FFF70FFC401BB042F9D940E0FFF745
:1015D00009FC401BB0423BD8386810F00C0FF6D124
:1015E0006CE02078800707D5D8F80020A36822F0A7
:1015F000F0021A43C8F800202078C0074CD0606879
:10160000012828D0022829D0032827D00968890773
:10161000002949DAD8F8002022F003020243C8F872
:101620000020FFF7DFFB0546606800E03CE0012892
:101630001DD0022829D0032838D0B346464630684A
:1016400010F00C0F28D0FFF7CDFB411B5945F6D900
:101650000320BDE8F09F09688903D9E7096889017B
:10166000D6E7FFF7BFFB411B594502D9F0E7B34668
:1016700046463068C0F381000128F2D10CE0FFF744
:10168000B1FB411B594502D9E2E7B34646463068F3
:10169000C0F381000228F2D18AF80090DAF8000045
:1016A00000F00F00B84209D00120D2E7444620687C
:1016B000FFF798FB401BB042F9D9C9E720784007F3
:1016C00007D5D8F80010E26821F4E0511143C8F8BA
:1016D00000102078000708D5D8F80010226921F4FE
:1016E000604141EAC201C8F800100F20FFF7A2FBD9
:1016F0000020AEE7003C02400038024010B500F088
:1017000043F808490968F02292FAA2F201F0F001C8
:10171000B2FA82F2D140044A515CC84003490860E1
:1017200010BD0000083802402A5A000800000020BE
:1017300010B5FFF7E3FF074909684FF4E05292FA4A
:10174000A2F201F4E051B2FA82F2D140024A515CB5
:10175000C84010BD083802402A5A000810B5FFF7EB
:10176000CDFF074909684FF4604292FAA2F201F4F2
:101770006041B2FA82F2D140024A515CC84010BDC9
:10178000083802402A5A000830B51948006810F09D
:101790000C01184812D0184C04290ED008290DD17C
:1017A000134A121F1168136801F03F015D0247F6EA
:1017B000C07304D5B4FBF1F003E0204630BDB0FBAC
:1017C000F1F01168194093FAA3F3B3FA83F3D94007
:1017D000484311684FF4403292FAA2F201F44031CA
:1017E000B2FA82F2D140491C4900B0FBF1F030BDA1
:1017F000083802400024F40040787D012DE9F84FBC
:1018000004460078DFF8FCA2BF4DC0074FF0000689
:1018100048D0DAF800105046C1F38101012908D000
:101820000068C0F3810002280AD1281D0068400228
:1018300006D52868800335D56068002873D031E06C
:10184000DFF8C49209F1020989F80060FFF7CAFACB
:10185000074641F2883804E0FFF7C4FAC11B41454E
:101860007AD828688003F7D4207989F80000606866
:1018700060B1FFF7B7FA074604E0FFF7B3FAC11B00
:101880004145EDD828688003F7D50BE0FFF7AAFAA9
:10189000074604E0FFF7A6FAC11B4145E0D82868D7
:1018A0008003F7D42078DFF86492800744D5DAF813
:1018B0000010504611F00C0F4FF0F80809D00068E6
:1018C000C0F3810002280BD18E48001F006840023F
:1018D00006D42868800714D5E068012823D110E0D9
:1018E000E068D0B10120C9F80000FFF77BFA074695
:1018F00004E0FFF777FAC01B6428B1D82868800796
:10190000F7D5286898FAA8F22169B2FA82F220F095
:10191000F8009140084328600EE0C9F80060FFF726
:1019200061FA074605E0EAE0FFF75CFAC01B6428AD
:1019300012D828688007F7D42078000725D5DFF86B
:10194000C4817348616908F16C0881B101210160AB
:10195000FFF748FA074605E07EE0FFF743FAC01BB1
:10196000642879D8D8F800008007F6D50DE0066025
:10197000FFF738FA074604E0FFF734FAC01B642883
:101980006AD8D8F800008007F6D42078400753D5ED
:101990005C483830016841F0805101600068DFF830
:1019A000748100F080500090D8F8001041F48071EC
:1019B000C8F80010FFF716FA074604E0FFF712FA1E
:1019C000C01B642848D8D8F80000C005F6D5DFF859
:1019D00034B10BF1680B8BF80060FFF703FA074690
:1019E00041F2883804E0FFF7FDF9C11B41457ED87C
:1019F000DBF800008007F6D4207A8BF80000A0689E
:101A000068B1FFF7EFF9074604E0FFF7EBF9C11BF8
:101A100041456CD8DBF800008007F6D50CE0FFF7F5
:101A2000E1F9074604E0FFF7DDF9C11B41455ED847
:101A3000DBF800008007F6D4A069E8B3DAF80010FC
:101A4000C1F3810102295AD0022806D0C9F860608A
:101A5000FFF7C8F904464DE049E04F46C9F8606019
:101A6000FFF7C0F9064604E0FFF7BCF9801B6428C5
:101A70003DD828688001F7D4D4E90701084347F628
:101A8000C07191FAA1F1626AB1FA81F18A40A16A4A
:101A90004FF0FF3303EB51014FF4403393FAA3F3BC
:101AA000B3FA83F399400A4310434FF0706292FAFD
:101AB000A2F2B2FA82F200E01FE0E16A914008432C
:101AC0001049091F086001203866FFF78BF90446AA
:101AD00004E0FFF787F9001B642808D82868800114
:101AE000F7D50AE0FFF77EF9001B642802D903202E
:101AF000BDE8F88F28688001F4D40020F8E70120C1
:101B0000F6E7000008380240003802400000474273
:101B1000800E47420070004070B50D46040003D0AF
:101B200094F82C0010B107E0012070BD002084F86B
:101B30002D00204600F012F8022084F82C00211D10
:101B40002068FEF72BFED4E900022946FEF776FE58
:101B5000012084F82C00002070BD0000304800B542
:101B6000016887B041F001010160006800F00100E8
:101B700005902B480838016841F0040101600168B4
:101B800001F004010591016841F00801016001685C
:101B900001F008010591016841F010010160016840
:101BA00001F010010591016841F020010160016818
:101BB00001F020010591016841F0400101600068D9
:101BC000694600F0400005900D2000900220019031
:101BD00001200290032003900C2004901148FFF78D
:101BE00009F84CF20370009069460F48FFF702F8BD
:101BF0004FF68370009069460C48FEF7FBFF4FF6E6
:101C00003F00009069460A48FEF7F4FF48F237109B
:101C1000009069460748FEF7EDFF07B000BD0000E1
:101C20003838024000080240000C02400010024018
:101C3000001402400018024010B5044690F82C0031
:101C4000022809D0022084F82C002068FEF7CCFD81
:101C5000012084F82C00002010BD70B5044690F8D7
:101C60002C000D4602280CD0022084F82C0020689D
:101C7000FEF7C0FD2868022804D0012084F82C005B
:101C8000002070BD0520F9E770B515460E4604002A
:101C900003D094F8490010B107E0012070BD002086
:101CA00084F84800204600F01BF804F10801206881
:101CB000FEF70AFD3146A2682068FEF741FDD4E92F
:101CC00001022946236BFEF7DFFCA168206850F86B
:101CD000212042F0010240F82120002070BD0000C8
:101CE0001A4800B5016887B041F001010160006841
:101CF00000F00100059015480838016841F008011E
:101D00000160016801F008010591016841F01001CE
:101D100001600068694600F0100005904EF2B37053
:101D200000900220019001200290032003900C20DB
:101D300004900748FEF75EFF4FF6807000906946FA
:101D40000448FEF757FF07B000BD000038380240D6
:101D5000000C0240001002404FF0E0210428086906
:101D600003D020F004000861704740F00400FAE757
:101D700010B5401EB0F1807F01D3012010BD4FF09F
:101D8000E02460610F21601703F0E8F90020A061F2
:101D900007202061002010BD704738B50168044657
:101DA0000868CA68C0F3000002F4807238B132B12A
:101DB000086848680090E06B40F00100E063086844
:101DC0004A69C0F3400002F0010238B132B108683C
:101DD00048680090E06B40F00400E06308684A69DE
:101DE000C0F3800002F0010238B132B108684868DF
:101DF0000090E06B40F00200E06308684A69C0F3BD
:101E0000C00002F0010238B132B1086848680090A1
:101E1000E06B40F00800E0630868C968C0F3401058
:101E200001F0200118B111B1204603F08BFA2068AF
:101E30000168C068C1F3C01100F0800019B110B191
:101E4000204603F08DFB21680868CA68C0F3801043
:101E500002F04002012568B162B1CA68204622F052
:101E60004002CA6094F8391032290CD080F83950F9
:101E700000F0ECF8E06B002804D084F839502046DC
:101E8000FFF78AFF38BD222180F83910F0E770B5DE
:101E9000040004D094F83900002510B106E00120B8
:101EA00070BD84F83850204600F020F8022084F8F5
:101EB00039002068C16821F40051C160204603F058
:101EC00095FA2068016921F4904101612068416917
:101ED00021F02A0141612068C16841F40051C160CC
:101EE000E563012084F83900002070BD30B5044658
:101EF0000068204987B0884239D11F48016841F005
:101F000001010160006800F0010005901A481430DA
:101F1000016841F0100101600068012100F010002B
:101F200005904FF4007000900220CDE9010103906C
:101F30000720124D049069462846FEF75BFE2815DF
:101F4000009069462846FEF755FE2068C16821F0DA
:101F50004001C1602068C16841F02001C1602520B6
:101F6000FFF7F2F8032211462520FFF7F9F807B032
:101F700030BD000000100140303802400000024037
:101F80002DE9F047044690F8390099460D4601289E
:101F900001D0122857D125B31AB394F8380001287C
:101FA00051D0012684F838600027E76394F839009F
:101FB000122819D0222084F83900A285E2854FF436
:101FC0008058E08D4B46401EE085A0684FF000022F
:101FD00040454FF02001204616D103F0F4FAB0B985
:101FE00004E00120BDE8F0873220E4E72069002802
:101FF0002068406803D0C1B225F8011B12E0C0F38D
:10200000080125F8021B0DE003F0DDFA08B10320FA
:10201000E8E7206900282068406801D000F07F00D0
:1020200005F8010BE08D0028CBD194F83900322857
:1020300005D084F8396084F838700020D2E7122087
:1020400084F83900F7E70220CCE770477047FEE7D5
:1020500070B5144886B00025016841F001010160A7
:10206000016801F001010591016841F08001016002
:102070000068032400F08000059002200126CDE9CD
:102080000204CDE9006569460748FEF7B3FD0C2060
:1020900003948DE8610069460448FEF7ABFD06B085
:1020A00070BD00003038024000000240001C0240B9
:1020B00070B50E490E4A064608881268002422B1FF
:1020C0003046BDE8704002F057BD4D8800214543C1
:1020D000084602F077FC02F017FDB1B2054801E0B6
:1020E0000180641CAC42FBD370BD00008401002061
:1020F00070020020000008602DE9F05F3C4C3D4D6F
:10210000A071296839B102F057FDE88A2080288B38
:102110006080BDE8F09F36492C232A2589884FF03E
:10212000F00949F2413A47F2897B2B2645F2105ECD
:102130004FF448774FF4A07845F2103C4FF4F0721A
:1021400068B1A4F80080A4F80290514503D061451D
:1021500001D059452CD123816581A6813DE0A4F8A9
:102160000090A4F80280514503D0614501D0594543
:1021700008D123816581A681614533D1A4F800800F
:1021800062802FE0714509D14FF4305020814FF427
:10219000285060814FF42C50A08106E0A1F5C85072
:1021A00063381FD123816681A5812280678019E071
:1021B000714509D14FF4305020814FF4285060818F
:1021C0004FF42C50A08106E0A1F5C850633804D12B
:1021D00023816581A68127806280614502D12280AA
:1021E000A4F80280BDE8F05F002002F00BBB000005
:1021F00084010020700200202DE9F04F95B002F01C
:1022000081FEFE4C4FF0010BA4F1500AA08047F272
:10221000897545F2103845F2105641F6631918B128
:1022200002F038FD02F096BAF5480027016841F047
:1022300002010160006810A900F002000090202057
:10224000CDE9100B0320CDE912B0EE48FEF7D2FC29
:102250004FF020415046CAF80010EB49C0E9011781
:102260001021CAF80C70C0E90471CAF8187009028C
:10227000CAF81C70C0E909718900C0E90B71CAF87D
:1022800034708901CAE90E7146210B910F20CDE906
:102290000907CDE902070490D8480F9702AA09A9B7
:1022A00008975038FFF7F0FC322003F017FAD320DC
:1022B00002F01EFC02F074FAA08002F071FAA08015
:1022C00002F06EFA4FF6FF7707EA0020A08002F0D6
:1022D00067FAA1880843A0F51341A08041397AD05C
:1022E000042002F005FC02F05BFAA08002F058FA2C
:1022F000A08002F055FA07EA0020A08002F050FA10
:10230000A1880843A0F50541A08052395FD0A842BA
:1023100061D0D42002F0ECFB02F042FAA08002F07F
:102320003FFAA08002F03CFA07EA0020A08002F009
:1023300037FAA1880843A08040454CD055214FF47E
:10234000704002F0EBFBAA214FF2010002F0E6FB25
:1023500052214FF2020002F0E1FB08214FF203008C
:1023600002F0DCFB01214FF2040002F0D7FB4FF436
:10237000454002F0BDFB02F013FA07EA0020A080FE
:102380004CF2015002F0B4FB02F00AFAA1880843B3
:10239000A080052003F0A2F9A088B0F5004F7DD001
:1023A000B04218D0A12002F0A3FB02F0F9F9A080FE
:1023B00002F0F6F907EA0020A08002F0F1F9A18806
:1023C0000843A0F5AE41A080613902D003E0A580AA
:1023D00001E0A4F80490A1888CA0FDF75DFFA0881F
:1023E000A0F5134141397DD0A8427CD1112002F0E3
:1023F0007FFB782003F072F9362002F079FB002091
:1024000002F06AFB3A2002F073FB052002F064FB45
:10241000B22002F06DFB0C2002F05EFB0C2002F0FB
:102420005BFB002002F058FB332002F055FB332009
:1024300002F052FBB72002F05BFB352002F04CFBB0
:10244000BB2002F055FB322002F046FBC02002F018
:102450004FFB0C2002F040FBC22002F049FB0120A0
:1024600002F03AFBC32002F043FB102002F034FBE1
:10247000C42002F03DFB202002F02EFBC62002F01B
:1024800037FB0F2002F028FBD02002F031FBA42004
:1024900002F022FBA12002F01FFB00E0A0E1E020FF
:1024A00002F026FBD02002F017FB002002F014FB04
:1024B000022002F011FB072002F00EFB0A2002F0BE
:1024C0000BFB282002F008FB322002F005FB442021
:1024D00002F002FB422002F0FFFA062002F0FCFAB2
:1024E0000E2001E059E07DE102F0F6FA122002F040
:1024F000F3FA142002F0F0FA172002F0EDFAE120CE
:1025000002F0F6FAD02002F0E7FA002002F0E4FA36
:10251000022002F0E1FA072002F0DEFA0A2002F0BF
:10252000DBFA282002F0D8FA312002F0D5FA542044
:1025300002F0D2FA472002F0CFFA0E2002F0CCFAD5
:102540001C2002F0C9FA172002F0C6FA1B2002F084
:10255000C3FA1E2002F0C0FA2A2002F0C9FA0020B5
:1025600002F0BAFA002002F0B7FA002002F0B4FA42
:10257000EF2002F0B1FA2B2002F0BAFA002002F0AC
:10258000ABFA002002F0A8FA012002F0A5FA3F20E1
:1025900002F0A2FA292002F020B8CF2002F0A8FA17
:1025A000002002F099FAC12002F096FA302002F0E1
:1025B00093FAED2002F09CFA642002F08DFA0320D9
:1025C00002F08AFA122002F087FA812002F084FADF
:1025D000E82002F08DFA852002F07EFA102002F049
:1025E0007BFA7A2002F078FACB2002F081FA3920C7
:1025F00002F072FA2C2002F06FFA0FE08401002042
:102600003038024000040240040100A0204C434442
:102610002049443A25780D0A00000000002002F00D
:102620005BFA342002F058FA022002F055FAF72043
:1026300002F05EFA202002F04FFAEA2002F058FA87
:10264000002002F049FA002002F046FAC02002F011
:102650004FFA1B2002F040FAC12002F049FA012093
:1026600002F03AFAC52002F043FA302002F034FAC0
:10267000302002F031FAC72002F03AFAB72002F017
:102680002BFA362002F034FA482002F025FA3A20DC
:1026900002F02EFA552002F01FFAB12002F028FABB
:1026A000002002F019FA1A2002F016FAB62002F001
:1026B0001FFA0A2002F010FAA22002F00DFAF2200E
:1026C00002F016FA002002F007FA262002F010FAB3
:1026D000012002F001FAE02002F00AFA0F2002F0D5
:1026E000FBF92A2002F0F8F9282002F0F5F9082079
:1026F00002F0F2F90E2002F0EFF9082002F0ECF9F6
:10270000542002F0E9F9A92002F0E6F9432002F092
:10271000E3F90A2002F0E0F90F2002F0DDF90020D1
:1027200002F0DAF9002002F0D7F9002002F0D4F923
:10273000002002F0D1F9E12002F0DAF9002002F0E5
:10274000CBF9152002F0C8F9172002F0C5F90720CF
:1027500002F0C2F9112002F0BFF9062002F0BCF924
:102760002B2002F0B9F9562002F0B6F93C2002F015
:10277000B3F9052002F0B0F9102002F0ADF90F20F6
:1027800002F0AAF93F2002F0A7F93F2002F0A4F9D5
:102790000F2002F0A1F92B2002F0AAF9002002F08C
:1027A0009BF9002002F098F9012002F095F93F20F2
:1027B00002F092F92A2002F09BF9002002F08CF935
:1027C000002002F089F9002002F086F9EF2002F0E3
:1027D00083F9112002F08CF9782002F07FFFD9E60E
:1027E000A680F8E540457CD1ED2002F081F901207A
:1027F00002F072F9FE2002F06FF9EE2002F078F993
:10280000DE2002F069F9212002F066F9F12002F0E1
:102810006FF9012002F060F9DF2002F069F9102061
:1028200002F05AF9C42002F063F98F2002F054F943
:10283000C62002F05DF9002002F04EF9E22002F01D
:102840004BF9E22002F048F9E22002F045F9BF20FE
:1028500002F04EF9AA2002F03FF9B02002F048F948
:102860000D2002F039F9002002F036F90D2002F0B7
:1028700033F9002002F030F9112002F02DF9002088
:1028800002F02AF9192002F027F9002002F024F9B9
:10289000212002F021F9002002F01EF92D2002F083
:1028A0001BF9002002F018F93D2002F015F9002074
:1028B00002F012F95D2002F00FF9002002F00CF98D
:1028C0005D2002F009F9002002F006F9B12002F0C3
:1028D0000FF9802002F000F9002002F0FDF88B20B3
:1028E00000E0FCE302F0F8F8002002F0F5F8962092
:1028F00002F0F2F8002002F0EFF8B22002F0F8F84F
:10290000002002F0E9F8002002F0E6F8022002F0D0
:10291000E3F8002002F0E0F8032002F0DDF80020E8
:1029200002F0DAF8B32002F0E3F8002002F0D4F865
:10293000002002F0D1F8002002F0CEF8002002F0D2
:10294000CBF8002002F0C8F8002002F0C5F8002003
:1029500002F0C2F8002002F0BFF8002002F0BCF83C
:10296000002002F0B9F8002002F0B6F8002002F0D2
:10297000B3F8002002F0B0F8002002F0ADF800201B
:1029800002F0AAF8002002F0A7F8002002F0A4F854
:10299000002002F0A1F8002002F09EF8002002F0D2
:1029A0009BF8002002F098F8002002F095F8002033
:1029B00002F092F8002002F08FF8B42002F098F8AC
:1029C0008B2002F089F8002002F086F8962002F0B1
:1029D00083F8002002F080F8A12002F07DF80020AA
:1029E00002F07AF8B52002F083F8022002F074F8C1
:1029F000002002F071F8032002F06EF8002002F0CF
:102A00006BF8042002F068F8002002F065F8B620A8
:102A100002F06EF8002002F05FF8002002F05CF88F
:102A2000B72002F065F8002002F056F8002002F00E
:102A300053F83F2002F050F8002002F04DF85E20DD
:102A400002F04AF8002002F047F8642002F044F84F
:102A5000002002F041F88C2002F03EF8002002F045
:102A60003BF8AC2002F038F8002002F035F8DC200A
:102A700002F032F8002002F02FF8702002F02CF85B
:102A8000002002F029F8902002F026F8002002F041
:102A900023F8EB2002F020F8002002F01DF8DC20E3
:102AA00002F01AF8002002F017F8B82002F020F81F
:102AB000002002F011F8002002F00EF8002002F0D1
:102AC0000BF8002002F008F8002002F005F80020C2
:102AD00002F002F8002001F0FFFF002001F0FCFFEF
:102AE000BA2002F005F8242001F0F6FF002001F0E2
:102AF000F3FF002001F0F0FF002001F0EDFFC12006
:102B000001F0F6FF202001F0E7FF002001F0E4FFD4
:102B1000542001F0E1FF002001F0DEFFFF2001F072
:102B2000DBFF002001F0D8FFC22001F0E1FF0A2006
:102B300001F0D2FF002001F0CFFF042001F0CCFF14
:102B4000002001F0C9FFC32001F0D2FF3C2001F0BA
:102B5000C3FF002001F0C0FF3A2001F0BDFF0020BC
:102B600001F0BAFF392001F0B7FF002001F0B4FFF7
:102B7000372001F0B1FF002001F0AEFF3C2001F052
:102B8000ABFF002001F0A8FF362001F0A5FF0020D8
:102B900001F0A2FF322001F09FFF002001F09CFF16
:102BA0002F2001F099FF002001F096FF2C2001F06A
:102BB00093FF002001F090FF292001F08DFF0020FD
:102BC00001F08AFF262001F087FF002001F084FF3A
:102BD000242001F081FF002001F07EFF242001F07D
:102BE0007BFF002001F078FF232001F075FF00201B
:102BF00001F072FF3C2001F06FFF002001F06CFF3C
:102C0000362001F069FF002001F066FF322001F05C
:102C100063FF002001F060FF2F2001F05DFF002026
:102C200001F05AFF2C2001F057FF002001F054FF63
:102C3000292001F051FF002001F04EFF262001F075
:102C40004BFF002001F048FF242001F045FF002049
:102C500001F042FF242001F03FFF002001F03CFF83
:102C6000232001F039FF002001F036FFC42001F0DD
:102C70003FFF622001F030FF002001F02DFF052012
:102C800001F02AFF002001F027FF842001F024FF3B
:102C9000002001F021FFF02001F01EFF002001F0D4
:102CA0001BFF182001F018FF002001F015FFA420E1
:102CB00001F012FF002001F00FFF182001F00CFFBF
:102CC000002001F009FF502001F006FF002001F074
:102CD00003FF0C2001F000FF002001F0FDFE172093
:102CE00001F0FAFE002001F0F7FE952001F0F4FE5D
:102CF000002001F0F1FEF32001F0EEFE002001F0D3
:102D0000EBFEE62001F0E8FE002001F0E5FEC52024
:102D100001F0EEFE322001F0DFFE002001F0DCFECB
:102D2000442001F0D9FE002001F0D6FE652001F01C
:102D3000D3FE002001F0D0FE762001F0CDFE002071
:102D400001F0CAFE882001F0C7FE002001F0C4FE99
:102D5000C62001F0CDFE202001F0BEFE002001F0D3
:102D6000BBFE172001F0B8FE002001F0B5FE0120E7
:102D700001F0B2FE002001F0AFFEC72001F0B8FE66
:102D8000002001F0A9FE002001F0A6FE002001F0C5
:102D9000A3FE002001F0A0FEC82001F0A9FE002043
:102DA00001F09AFE002001F097FE002001F094FE51
:102DB000002001F091FEC92001F09AFE002001F0F0
:102DC0008BFE002001F088FE002001F085FE00202F
:102DD00001F082FE002001F07FFE002001F07CFE69
:102DE000002001F079FE002001F076FE002001F0C5
:102DF00073FE002001F070FE002001F06DFE002047
:102E000001F06AFE002001F067FE002001F064FE80
:102E1000002001F061FE002001F05EFEE02001F0E4
:102E200067FE162001F058FE002001F055FE1C2020
:102E300001F052FE002001F04FFE212001F04CFE77
:102E4000002001F049FE362001F046FE002001F08E
:102E500043FE462001F040FE002001F03DFE5220DE
:102E600001F03AFE002001F037FE642001F034FE4C
:102E7000002001F031FE7A2001F02EFE002001F04A
:102E80002BFE8B2001F028FE002001F025FE99206A
:102E900001F022FE002001F01FFEA82001F01CFE20
:102EA000002001F019FEB92001F016FE002001F00B
:102EB00013FEC42001F010FE002001F00DFECA2018
:102EC00001F00AFE002001F007FED22001F004FE0E
:102ED000002001F001FED92001F0FEFD002001F0EC
:102EE000FBFDE02001F0F8FD002001F0F5FDF320EE
:102EF00001F0F2FD002001F0EFFDE12001F0F8FD0E
:102F0000162001F0E9FD002001F0E6FD1C2001F093
:102F1000E3FD002001F0E0FD222001F0DDFD0020B6
:102F200001F0DAFD362001F0D7FD002001F0D4FDDC
:102F3000452001F0D1FD002001F0CEFD522001F02E
:102F4000CBFD002001F0C8FD642001F0C5FD00208C
:102F500001F0C2FD7A2001F0BFFD002001F0BCFDB0
:102F60008B2001F0B9FD002001F0B6FD992001F0A1
:102F7000B3FD002001F0B0FDA82001F0ADFD002060
:102F800001F0AAFDB92001F0A7FD002001F0A4FD89
:102F9000C42001F0A1FD002001F09EFDCA2001F037
:102FA0009BFD002001F098FDD22001F095FD00204E
:102FB00001F092FDD82001F08FFD002001F08CFD82
:102FC000E02001F089FD002001F086FDF32001F0F2
:102FD00083FD002001F080FDE22001F089FD052045
:102FE00001F07AFD002001F077FD0B2001F074FD67
:102FF000002001F071FD1B2001F06EFD002001F0AA
:103000006BFD342001F068FD002001F065FD4420D7
:1030100001F062FD002001F05FFD4F2001F05CFD3A
:10302000002001F059FD612001F056FD002001F063
:1030300053FD792001F050FD002001F04DFD882066
:1030400001F04AFD002001F047FD972001F044FD0A
:10305000002001F041FDA62001F03EFD002001F01E
:103060003BFDB72001F038FD002001F035FDC22006
:1030700001F032FD002001F02FFDC72001F02CFDF2
:10308000002001F029FDD12001F026FD002001F0F3
:1030900023FDD62001F020FD002001F01DFDDD20E4
:1030A00001F01AFD002001F017FDF32001F014FDDE
:1030B000002001F011FDE32001F01AFD052001F0D0
:1030C0000BFD002001F008FD0A2001F005FD0020A5
:1030D00001F002FD1C2001F0FFFC002000E0FDE2F9
:1030E00001F0FAFC332001F0F7FC002001F0F4FCC1
:1030F000442001F0F1FC002001F0EEFC502001F032
:10310000EBFC002001F0E8FC622001F0E5FC00206F
:1031100001F0E2FC782001F0DFFC002001F0DCFC93
:10312000882001F0D9FC002001F0D6FC972001F0A6
:10313000D3FC002001F0D0FCA62001F0CDFC002043
:1031400001F0CAFCB72001F0C7FC002001F0C4FC6C
:10315000C22001F0C1FC002001F0BEFCC72001F03C
:10316000BBFC002001F0B8FCD12001F0B5FC002030
:1031700001F0B2FCD52001F0AFFC002001F0ACFC66
:10318000DD2001F0A9FC002001F0A6FCF32001F0F5
:10319000A3FC002001F0A0FCE42001F0A9FC012028
:1031A00001F09AFC002001F097FC012001F094FC52
:1031B000002001F091FC022001F08EFC002001F0C3
:1031C0008BFC2A2001F088FC002001F085FC3C20CB
:1031D00001F082FC002001F07FFC4B2001F07CFC20
:1031E000002001F079FC5D2001F076FC002001F068
:1031F00073FC742001F070FC002001F06DFC842051
:1032000001F06AFC002001F067FC932001F064FCEF
:10321000002001F061FCA22001F05EFC002001F022
:103220005BFCB32001F058FC002001F055FCBE20EF
:1032300001F052FC002001F04FFCC42001F04CFCD6
:10324000002001F049FCCD2001F046FC002001F0F7
:1032500043FCD32001F040FC002001F03DFCDD20C8
:1032600001F03AFC002001F037FCF32001F034FCBF
:10327000002001F031FCE52001F03AFC002001F0D3
:103280002BFC002001F028FC002001F025FC002090
:1032900001F022FC022001F01FFC002001F01CFCC8
:1032A000292001F019FC002001F016FC3C2001F05F
:1032B00013FC002001F010FC4B2001F00DFC00205D
:1032C00001F00AFC5D2001F007FC002001F004FC85
:1032D000742001F001FC002001F0FEFB842001F0CD
:1032E000FBFB002001F0F8FB932001F0F5FB002030
:1032F00001F0F2FBA22001F0EFFB002001F0ECFB5B
:10330000B32001F0E9FB002001F0E6FBBE2001F054
:10331000E3FB002001F0E0FBC42001F0DDFB002016
:1033200001F0DAFBCD2001F0D7FB002001F0D4FB47
:10333000D32001F0D1FB002001F0CEFBDC2001F016
:10334000CBFB002001F0C8FBF32001F0C5FB0020FF
:1033500001F0C2FBE62001F0CBFB112001F0BCFB29
:10336000002001F0B9FB342001F0B6FB002001F091
:10337000B3FB562001F0B0FB002001F0ADFB76203E
:1033800001F0AAFB002001F0A7FB772001F0A4FBCD
:10339000002001F0A1FB662001F09EFB002001F05F
:1033A0009BFB882001F098FB002001F095FB992001
:1033B00001F092FB002001F08FFBBB2001F08CFBA1
:1033C000002001F089FB992001F086FB002001F02C
:1033D00083FB662001F080FB002001F07DFB55207F
:1033E00001F07AFB002001F077FB552001F074FB1F
:1033F000002001F071FB452001F06EFB002001F080
:103400006BFB432001F068FB002001F065FB4420CA
:1034100001F062FB002001F05FFBE72001F068FB98
:10342000322001F059FB002001F056FB552001F03D
:1034300053FB002001F050FB762001F04DFB0020F3
:1034400001F04AFB662001F047FB002001F044FB3D
:10345000672001F041FB002001F03EFB672001F0F6
:103460003BFB002001F038FB872001F035FB0020FA
:1034700001F032FB992001F02FFB002001F02CFB22
:10348000BB2001F029FB002001F026FB992001F070
:1034900023FB002001F020FB772001F01DFB002022
:1034A00001F01AFB442001F017FB002001F014FB8F
:1034B000562001F011FB002001F00EFB232001F04B
:1034C0000BFB002001F008FB332001F005FB00207E
:1034D00001F002FB452001F0FFFA002001F0FCFAA8
:1034E000E82001F005FB002001F0F6FA002001F0D1
:1034F000F3FA992001F0F0FA002001F0EDFA8720AC
:1035000001F0EAFA002001F0E7FA882001F0E4FA7D
:10351000002001F0E1FA772001F0DEFA002001F04E
:10352000DBFA662001F0D8FA002001F0D5FA8820F5
:1035300001F0D2FA002001F0CFFAAA2001F0CCFA73
:10354000002001F0C9FABB2001F0C6FA002001F00A
:10355000C3FA992001F0C0FA002001F0BDFA6620FC
:1035600001F0BAFA002001F0B7FA552001F0B4FAE0
:10357000002001F0B1FA552001F0AEFA002001F070
:10358000ABFA442001F0A8FA002001F0A5FA44208B
:1035900001F0A2FA002001F09FFA552001F09CFAF8
:1035A000002001F099FAE92001F0A2FAAA2001F026
:1035B00093FA002001F090FA002001F08DFA00202B
:1035C00001F08AFA002001F093FAAA2001F084FAAF
:1035D000CF2001F08DFA002001F07EFA002001F0EA
:1035E0007BFA002001F078FA002001F075FA002043
:1035F00001F072FA002001F06FFA002001F06CFA7D
:10360000002001F069FA002001F066FA002001F0C4
:1036100063FA002001F060FA002001F05DFA00205A
:1036200001F05AFA002001F057FA002001F054FA94
:10363000002001F051FA002001F04EFAF02001F0D4
:1036400057FA002001F048FA502001F045FA002016
:1036500001F042FA002001F03FFA002001F03CFAAC
:10366000F32001F045FA002001F036FAF92001F0CC
:103670003FFA062001F030FA102001F02DFA29203F
:1036800001F02AFA002001F027FA3A2001F030FA7E
:10369000552001F021FA112001F02AFA642002F0ED
:1036A0001DF8292001F024FA352001F021FA00202C
:1036B00001F012FA512001F01BFAFF2001F00CFA80
:1036C000532001F015FA2C2001F006FA552001F0E4
:1036D0000FFA822001F000FA2C20FDE3B0427DD1E8
:1036E00055214FF4704001F019FAAA214FF2010060
:1036F00001F014FA52214FF2020001F00FFA4FF2DA
:1037000003030821184601F009FA4FF204070121CA
:10371000384601F003FA0D214FF4304001F0FEF974
:103720000D214BF2010001F0F9F90D214BF20200DD
:1037300001F0F4F934214FF4364001F0EFF934216F
:103740004BF2016001F0EAF934214BF2026001F022
:10375000E5F90D214FF4314001F0E0F90D214BF274
:10376000011001F0DBF90D214BF2021001F0D6F946
:1037700034214FF4374001F0D1F934214BF201707C
:1037800001F0CCF934214BF2027001F0C7F90021AD
:103790004FF4324001F0C2F900214BF2012001F058
:1037A000BDF900214BF2022001F0B8F924214FF4B9
:1037B000384001F0B3F924214BF6010001F0AEF9D5
:1037C00024214BF6020001F0A9F901214FF43F40FA
:1037D00001F0A4F90F214FF4334000E0FEE301F0C3
:1037E0009DF90F214BF2013001F098F90F214BF2B6
:1037F000023001F093F934214FF4394001F08EF991
:1038000034214BF6011001F089F934214BF60210F6
:1038100001F084F908214FF4354001F07FF90821C7
:103820004BF2015001F07AF908214BF2025001F0FD
:1038300075F903214FF4424001F070F924214FF44F
:103840003A4001F06BF924214BF6012001F066F9B2
:1038500024214BF6022001F061F900214FF43C4095
:1038600001F05CF978214BF6014001F057F9002195
:103870004BF6024001F052F900214FF43D4001F0B7
:103880004DF978214BF6015001F048F900214BF633
:10389000025001F043F900214FF43E4001F03EF99F
:1038A00064214BF6016001F039F900214FF45140D9
:1038B00001F034F933214DF2011001F02FF900210C
:1038C0004DF2021001F02AF934214DF2031001F0FB
:1038D00025F900214DF2041001F020F93A214DF2B2
:1038E000051001F01BF900214DF2061001F016F948
:1038F0004A214DF2071001F011F900214DF2081094
:1039000001F00CF95C214DF2091001F007F90021DA
:103910004DF20A1001F002F981214DF20B1001F075
:10392000FDF800214DF20C1001F0F8F8A6214DF23F
:103930000D1001F0F3F800214DF20E1001F0EEF839
:10394000E5214DF20F1001F0E9F801214DF21010C0
:1039500001F0E4F813214DF2111001F0DFF801211C
:103960004DF2121001F0DAF854214DF2131001F06B
:10397000D5F801214DF2141001F0D0F882214DF25A
:10398000151001F0CBF801214DF2161001F0C6F828
:10399000CA214DF2171001F0C1F802214DF21810A2
:1039A00001F0BCF800214DF2191001F0B7F8022126
:1039B0004DF21A1001F0B2F801214DF21B1001F086
:1039C000ADF802214DF21C1001F0A8F834214DF29F
:1039D0001D1001F0A3F802214DF21E1001F09EF817
:1039E00067214DF21F1001F099F802214DF22010CD
:1039F00001F094F884214DF2211001F08FF802219A
:103A00004DF2221001F08AF8A4214DF2231001F0AA
:103A100085F802214DF2241001F080F8B7214DF213
:103A2000251001F07BF802214DF2261001F076F806
:103A3000CF214DF2271001F071F802214DF228102C
:103A400001F06CF8DE214DF2291001F067F8022137
:103A50004DF22A1001F062F8F2214DF22B1001F024
:103A60005DF802214DF22C1001F058F8FE214DF2C4
:103A70002D1001F053F803214DF22E1001F04EF8F5
:103A800010214DF22F1001F049F803214DF23010B2
:103A900001F044F833214DF2311001F03FF80321D9
:103AA0004DF2321001F03AF86D214DF2331001F071
:103AB00035F800214FF4524001F030F833214DF237
:103AC000012001F02BF800214DF2022001F026F830
:103AD00034214DF2032001F021F800214DF20420A1
:103AE00001F01CF83A214DF2052001F017F80021F1
:103AF0004DF2062001F012F84A214DF2072001F0A4
:103B00000DF800214DF2082001F008F85C214DF27B
:103B1000092001F003F800214DF20A2000F0FEFF19
:103B200081214DF20B2000F0F9FF00214DF20C2015
:103B300000F0F4FFA6214DF20D2000F0EFFF002170
:103B40004DF20E2000F0EAFFE5214DF20F2000F0CB
:103B5000E5FF01214DF2102000F0E0FF13214DF2AE
:103B6000112000F0DBFF01214DF2122000F0D6FF02
:103B700054214DF2132000F0D1FF01214DF2142009
:103B800000F0CCFF82214DF2152000F0C7FF01218B
:103B90004DF2162000F0C2FFCA214DF2172000F0AE
:103BA000BDFF02214DF2182000F0B8FF00214DF2B8
:103BB000192000F0B3FF02214DF21A2000F0AEFFF1
:103BC00001214DF21B2000F0A9FF02214DF21C2023
:103BD00000F0A4FF34214DF21D2000F09FFF0221D0
:103BE0004DF21E2000F09AFF67214DF21F2000F0D9
:103BF00095FF02214DF2202000F090FF84214DF22C
:103C0000212000F08BFF02214DF2222000F086FFE0
:103C1000A4214DF2232000F081FF02214DF2242047
:103C200000F07CFFB7214DF2252000F077FF022144
:103C30004DF2262000F072FFCF214DF2272000F038
:103C40006DFF02214DF2282000F068FFDE214DF2C9
:103C5000292000F063FF02214DF22A2000F05EFFD0
:103C6000F2214DF22B2000F059FF02214DF22C20C1
:103C700000F054FFFE214DF22D2000F04FFF0321F4
:103C80004DF22E2000F04AFF10214DF22F2000F0BF
:103C900045FF03214DF2302000F040FF33214DF26B
:103CA000312000F03BFF03214DF2322000F036FFBF
:103CB0006D214DF2332000F031FF00214FF45340CD
:103CC00000F02CFF33214DF2013000F027FF0021DE
:103CD0004DF2023000F022FF34214DF2033000F0AB
:103CE0001DFF00214DF2043000F018FF3A214DF283
:103CF000053000F013FF00214DF2063000F00EFFFA
:103D00004A214DF2073000F009FF00214DF2083042
:103D100000F004FF5C214DF2093000F0FFFE0021AD
:103D20004DF20A3000F0FAFE81214DF20B3000F026
:103D3000F5FE00214DF20C3000F0F0FEA6214DF210
:103D40000D3000F0EBFE00214DF20E3000F0E6FEEB
:103D5000E5214DF20F3000F0E1FE01214DF210306F
:103D600000F0DCFE13214DF2113000F0D7FE0121EE
:103D70004DF2123000F0D2FE54214DF2133000F01B
:103D8000CDFE01214DF2143000F0C8FE82214DF22B
:103D9000153000F0C3FE01214DF2163000F0BEFEDA
:103DA000CA214DF2173000F0B9FE02214DF2183051
:103DB00000F0B4FE00214DF2193000F0AFFE0221F8
:103DC0004DF21A3000F0AAFE01214DF21B3000F036
:103DD000A5FE02214DF21C3000F0A0FE34214DF270
:103DE0001D3000F09BFE02214DF21E3000F096FEC9
:103DF00067214DF21F3000F091FE02214DF220307C
:103E000000F08CFE84214DF2213000F087FE02216B
:103E10004DF2223000F082FEA4214DF2233000F05A
:103E20007DFE02214DF2243000F078FEB7214DF2E4
:103E3000253000F073FE02214DF2263000F06EFEB8
:103E4000CF214DF2273000F069FE02214DF22830DB
:103E500000F064FEDE214DF2293000F05FFE022109
:103E60004DF22A3000F05AFEF2214DF22B3000F0D4
:103E700055FE02214DF22C3000F050FEFE214DF295
:103E80002D3000F04BFE03214DF22E3000F046FEA7
:103E900010214DF22F3000F041FE03214DF2303061
:103EA00000F03CFE33214DF2313000F037FE0321AB
:103EB0004DF2323000F032FE6D214DF2333000F021
:103EC0002DFE00214FF4544000F028FE33214DF226
:103ED000014000F023FE00E07FE300214DF20240AC
:103EE00000F01CFE34214DF2034000F017FE0021CB
:103EF0004DF2044000F012FE3A214DF2054000F070
:103F00000DFE00214DF2064000F008FE4A214DF260
:103F1000074000F003FE00214DF2084000F0FEFDD6
:103F20005C214DF2094000F0F9FD00214DF20A40FC
:103F300000F0F4FD81214DF20B4000F0EFFD002177
:103F40004DF20C4000F0EAFDA6214DF20D4000F0CC
:103F5000E5FD00214DF20E4000F0E0FDE5214DF2BF
:103F60000F4000F0DBFD01214DF2104000F0D6FDC6
:103F700013214DF2114000F0D1FD01214DF212400C
:103F800000F0CCFD54214DF2134000F0C7FD01219B
:103F90004DF2144000F0C2FD82214DF2154000F0B8
:103FA000BDFD01214DF2164000F0B8FDCA214DF2D1
:103FB000174000F0B3FD02214DF2184000F0AEFDB5
:103FC00000214DF2194000F0A9FD02214DF21A40E6
:103FD00000F0A4FD01214DF21B4000E000E300F0E1
:103FE0009DFD02214DF21C4000F098FD34214DF260
:103FF0001D4000F093FD02214DF21E4000F08EFDA9
:1040000067214DF21F4000F089FD02214DF2204052
:1040100000F084FD84214DF2214000F07FFD02215B
:104020004DF2224000F07AFDA4214DF2234000F031
:1040300075FD02214DF2244000F070FDB7214DF2D4
:10404000254000F06BFD02214DF2264000F066FD98
:10405000CF214DF2274000F061FD02214DF22840B2
:1040600000F05CFDDE214DF2294000F057FD0221F9
:104070004DF22A4000F052FDF2214DF22B4000F0AB
:104080004DFD02214DF22C4000F048FDFE214DF285
:104090002D4000F043FD03214DF22E4000F03EFD87
:1040A00010214DF22F4000F039FD03214DF2304038
:1040B00000F034FD33214DF2314000F02FFD03219B
:1040C0004DF2324000F02AFD6D214DF2334000F0F8
:1040D00025FD00214FF4554000F020FD33214DF225
:1040E000015000F01BFD00214DF2025000F016FDC2
:1040F00034214DF2035000F011FD00214DF2045027
:1041000000F00CFD3A214DF2055000F007FD0021B2
:104110004DF2065000F002FD4A214DF2075000F02A
:10412000FDFC00214DF2085000F0F8FC5C214DF23E
:10413000095000F0F3FC00214DF20A5000F0EEFCB3
:1041400081214DF20B5000F0E9FC00214DF20C50A2
:1041500000F0E4FCA6214DF20D5000F0DFFC002140
:104160004DF20E5000F0DAFCE5214DF20F5000F058
:10417000D5FC01214DF2105000F0D0FC13214DF27E
:10418000115000F0CBFC01214DF2125000F0C6FCA2
:1041900054214DF2135000F0C1FC01214DF2145096
:1041A00000F0BCFC82214DF2155000F0B7FC01215B
:1041B0004DF2165000F0B2FCCA214DF2175000F03B
:1041C000ADFC02214DF2185000F0A8FC00214DF288
:1041D000195000F0A3FC02214DF21A5000F09EFC91
:1041E00001214DF21B5000F099FC02214DF21C50B0
:1041F00000F094FC34214DF21D5000F08FFC0221A0
:104200004DF21E5000F08AFC67214DF21F5000F065
:1042100085FC02214DF2205000F080FC84214DF2FB
:10422000215000F07BFC02214DF2225000F076FC80
:10423000A4214DF2235000F071FC02214DF22450D4
:1042400000F06CFCB7214DF2255000F067FC022114
:104250004DF2265000F062FCCF214DF2275000F0C5
:104260005DFC02214DF2285000F058FCDE214DF299
:10427000295000F053FC02214DF22A5000F04EFC70
:10428000F2214DF22B5000F049FC02214DF22C504E
:1042900000F044FCFE214DF22D5000F03FFC0321C4
:1042A0004DF22E5000F03AFC10214DF22F5000F04C
:1042B00035FC03214DF2305000F030FC33214DF23B
:1042C000315000F02BFC03214DF2325000F026FC5F
:1042D0006D214DF2335000F021FC00214FF4564087
:1042E00000F01CFC33214DF2016000F017FC0021AE
:1042F0004DF2026000F012FC34214DF2036000F038
:104300000DFC00214DF2046000F008FC3A214DF252
:10431000056000F003FC00214DF2066000F0FEFB9A
:104320004A214DF2076000F0F9FB00214DF20860D0
:1043300000F0F4FB5C214DF2096000F0EFFB00217E
:104340004DF20A6000F0EAFB81214DF20B6000F0B3
:10435000E5FB00214DF20C6000F0E0FBA6214DF2E0
:104360000D6000F0DBFB00214DF20E6000F0D6FB8B
:10437000E5214DF20F6000F0D1FB01214DF21060FC
:1043800000F0CCFB13214DF2116000F0C7FB0121BE
:104390004DF2126000F0C2FB54214DF2136000F0A8
:1043A000BDFB01214DF2146000F0B8FB82214DF2FB
:1043B000156000F0B3FB01214DF2166000F0AEFB7A
:1043C000CA214DF2176000F0A9FB02214DF21860DE
:1043D00000F0A4FB00214DF2196000F09FFB0221C8
:1043E0004DF21A6000F09AFB01214DF21B6000F0C3
:1043F00095FB02214DF21C6000F090FB34214DF240
:104400001D6000F08BFB02214DF21E6000F086FB68
:1044100067214DF21F6000F081FB02214DF2206008
:1044200000F07CFB84214DF2216000F077FB02213B
:104430004DF2226000F072FBA4214DF2236000F0E7
:104440006DFB02214DF2246000F068FBB7214DF2B4
:10445000256000F063FB02214DF2266000F05EFB58
:10446000CF214DF2276000F059FB02214DF2286068
:1044700000F054FBDE214DF2296000F04FFB0221D9
:104480004DF22A6000F04AFBF2214DF22B6000F061
:1044900045FB02214DF22C6000F040FBFE214DF265
:1044A0002D6000F03BFB03214DF22E6000F036FB47
:1044B00010214DF22F6000F031FB03214DF23060EE
:1044C00000F02CFB33214DF2316000F027FB03217B
:1044D0004DF2326000F022FB6D214DF2336000F0AE
:1044E0001DFB5521381F00F019FBAA21F81E00F012
:1044F00015FB5221B81E00F011FB0821184600F0F0
:104500000DFB0021384600F009FBCC214FF431406F
:1045100000F004FB00214BF2011000F0FFFA05212E
:104520004FF4364000F0FAFA70214FF4374000F0B3
:10453000F5FA70214BF2017000F0F0FA01214FF40E
:10454000384000F0EBFA03214BF6010000F0E6FAE8
:1045500003214BF6020000F0E1FA03214BF60300C1
:1045600000F0DCFA02214FF43C4000F0D7FA0021C1
:104570004BF6014000F0D2FA00214BF6024000F069
:10458000CDFAD0214FF4494000F0C8FA02214CF690
:10459000011000F0C3FA50214CF6021000F0BEFAF0
:1045A00050214CF6031000F0B9FA50214CF60410DB
:1045B00000F0B4FA00214FF4545000F0AFFA552146
:1045C0004FF4685000F0AAFA4FF4885000F090FAC7
:1045D000782001F091F84FF4245000F089FAB9E006
:1045E0004845FCD1E22000F083FA1D2000F074FA67
:1045F000022000F071FA042000F06EFA642001F04D
:104600007BF8E02000F074FA012000F065FA0A203F
:1046100001F064F8E02000F06BFA032000F05CFA8F
:104620000C2001F05BF8012000F062FA0A2001F092
:1046300055F8E62000F05CFA2F2000F04DFAFF203C
:1046400000F04AFAFF2000F047FAB02000F050FADC
:10465000202000F041FA002000F03EFA032000F094
:104660003BFA40F21F3000F037FA012000F034FA34
:1046700040F2DF1000F030FA002000F02DFAB420F4
:1046800000F036FA042000F027FA40F21F4000F054
:1046900023FA002000F020FA2E2000F01DFA00205E
:1046A00000F01AFA002000F017FA002000F014FAC7
:1046B000002000F011FAB62000F01AFA022000F0F3
:1046C0000BFA4FF4037000F007FA002000F004FA30
:1046D000172000F001FA152000F0FEF9002000F08C
:1046E000FBF9002000F0F8F9F02000F001FA0320B7
:1046F00000F0F2F9292000F0FBF9D02000F0F8F9E1
:10470000002000F0E9F9BE2000F0F2F9052000F0E9
:10471000E3F9FE2000F0E0F9012000F0DDF90020CF
:1047200000F0DAF9002000F0D7F9002000F0D4F909
:10473000B82000F0DDF9032000F0CEF9012000F0F0
:10474000CBF9BA2000F0D4F9012000F0C5F96420BB
:1047500000F030F8A088A0F51341413907D040455A
:1047600005D0B04203D0484501D0A84209D1052068
:1047700002900490DAE9010202A9DAF83030FBF77E
:1047800083FF0020FDF7B8FC0449C1F894B24FF64E
:10479000FF70FDF78DFC15B0BDE8F08F0080404242
:1047A000034808B50088ADF80000BDF8000008BD5A
:1047B0000000086010B50246BE2000F099F90520FF
:1047C00000F08AF9104601F01AF89FED0C1B53EC2B
:1047D000112B01F027F800F0E5FF80B200F07CF922
:1047E000012000F079F9FF2000F076F9002000F0B8
:1047F00073F9BDE81040002000F06EB96666666689
:1048000066660440F0B56E4D00232A46A979928869
:1048100041F66314012901D019B11BE0A24202D173
:1048200018E0A24216D1082814D2DFE800F00406EE
:10483000080A0C0E101206200CE007200AE00420E3
:1048400008E0052006E0012004E0002002E003204B
:1048500000E00220A2F5134745F2103145F2105650
:10486000413F09D08A4207D0B24205D0A24203D0CC
:10487000A2F5EE47893F77D1082812D2DFE800F091
:10488000110406080A0C0E1080230AE0402308E0F9
:10489000C02306E0202304E0602302E0A02300E020
:1048A000E023B24202D14FF4585000E036208A4251
:1048B00005D0B24203D0A24201D043F0080319460A
:1048C00000F02CF9A988A1420AD0980628886A88A5
:1048D00002D5904202D303E0904201D92A80688039
:1048E0006889B14241D100F003F9002000F0F4F8EA
:1048F0006889401C80B200F0FBF8002000F0ECF862
:104900006889801C80B200F0F3F82888401EC0F34C
:104910000F2000F0E1F86889C01C80B200F0E8F8D0
:104920002878401EC0B200F0D7F8A88900F0E0F85F
:10493000002000F0D1F8A889401C80B200F0D8F81F
:10494000002000F0C9F8A889801C80B200F0D0F8DF
:104950006888401EC0F30F2000F0BEF8A889C01C74
:1049600080B200F0C5F822E028E000F0C1F8002095
:1049700000F0B2F8002000F0AFF82888401EC0F325
:104980000F2000F0A9F82878401EC0B200F0A4F86B
:10499000A88900F0ADF8002000F09EF8002000F09B
:1049A0009BF86888401EC0F30F2000F095F8A878A7
:1049B000BDE8F040401EC0B200F08EB8F0BD00006F
:1049C00084010020F0B5434D0C4602460F0AA8882A
:1049D0002946160A4989A0F51343413B2DD0A0F57D
:1049E000A643103B29D0A0F5EE43893B25D0A0F586
:1049F000C853633B31D0A0F5AA43103B68D10846A9
:104A000000F076F8304600F067F86889401C80B204
:104A100000F06EF8D0B200F05FF8A88900F068F8F6
:104A2000384600F059F8A889401C80B200F060F8C0
:104A3000E0B2BDE8F04000F04FB8084600F058F88A
:104A4000304600F049F8D0B200F046F8A88900F0EE
:104A50004FF8384600F040F8EAE7A87930B3084646
:104A600000F046F8304600F037F8D0B200F034F8E5
:104A70002888401EC0F30F2000F02EF82878401E32
:104A8000C0B200F029F8A88900F032F8384600F0EA
:104A900023F8E0B200F020F86888401EC0F30F2031
:104AA00000F01AF8A878401EC0B2C2E72888801A21
:104AB000401E82B2084600F01BF8002000F00CF8FF
:104AC000002000F009F8100A00F006F8D0B2D8E78C
:104AD000F0BD00008401002001B5BDF80000ADF874
:104AE0000000BDF800000149088008BD0000086012
:104AF00001B5BDF80000ADF80000BDF800000149A7
:104B0000088008BDFEFF076002480349008908804D
:104B10007047000084010020FEFF0760024A1080F9
:104B2000901C018070470000FEFF0760104810B520
:104B3000016886B041F0020101600068012100F0C7
:104B4000020005900320CDE90210CDE90001094CD7
:104B500069462046FCF74EF8012211462046FCF734
:104B60003CF9012202212046FCF737F906B010BDBE
:104B7000303802400004024008B500900548018B1F
:104B8000C08A491E8BB2401E82B20021084600F046
:104B900027F808BD7002002000B58DB008230992E7
:104BA0000490009306916846FCF750FB002800D063
:104BB00001200DB000BD000010B5084B1C46587513
:104BC000A1888AB2218889B220B1012801D1D98275
:104BD0001A8310BDDA82198310BD00007002002014
:104BE0002DE9F843274EDDF820900024757D0DB1A6
:104BF000054606E077680D46B91A1A463B1A491E63
:104C00005B1E306896F814C0DFF87C80521B871A50
:104C100058F82CC0F66900FB015006FB00C51B4884
:104C20007F1EBFB2066846F400060660006800F406
:104C3000000000901648066826F0010606604FF452
:104C400040360660022646630764C563591AF303BB
:104C500003EB0242491C11434164C0F838900168DB
:104C600041F0010101605A0102E0641C944202D249
:104C700041688907F9D5816841F002018160BDE88A
:104C8000F883000070020020240000203038024029
:104C900000B002402DE9FF5F00F034F90126734CAB
:104CA000A0F586414FF4F0734FF0280947F28405D0
:104CB000423913D032044FF448714FF4C67AA842F7
:104CC0001ED1C4E90013268166812E20A081172001
:104CD000E081D2202082162060824BE04FF4887061
:104CE000C4E90030268166810820A4F80C90E08198
:104CF000052121828203608204214FF4907047E0F5
:104D000003258C27A0F5E04C4FF4B47BBCF1160CC6
:104D100010D0A0F5E0484FF4A06CB8F1180819D0F5
:104D2000A0F58048B8F5617817D0A0F58053183BFE
:104D300023D02FE04FF4806020604FF41670606045
:104D4000142020816581A781E081A02020820C2091
:104D500060821BE0C4E900C11CE0C4E900135820D4
:104D6000A081A4F81090302020812020E0810D2027
:104D700060826581032150460AE0C4E900C1A78131
:104D80000A2020822081E0816082658102215846CC
:104D9000FFF702FF36482268374F02806168418082
:104DA0000220E061334838603048344BA838002591
:104DB000C0E900358560C5600561B4F808C0ACF194
:104DC000010343616389A3F10108C0F81880B4F8B6
:104DD0000C80C444ACF10108C0F81C80B4F80E800B
:104DE0004344A3F10108C0F82080A2F10108E04487
:104DF000C0F82480A1F101089844C0F82880B4F8D4
:104E0000108042446244521EC262628A11441944B4
:104E1000491E016380F8365080F8355080F83450D0
:104E2000FCF742F807200621CDE90205CDE9005143
:104E3000FF2302220020396800F024F8A088002215
:104E400080B200902088114683B2104600F048F8E6
:104E50000020FFF7B1FE0A482575C0F8946204B03F
:104E6000681EBDE8F05FFFF787BE000070020020FB
:104E700084010020000000C02400002000680140E0
:104E8000008040422DE9F0438DB0164614AA00245C
:104E900092E88013114D009402942A6801926D6883
:104EA000CDE904634FEA0823CDE9067303954FEA81
:104EB00009230DF1240E08938EE8260002468DF892
:104EC000324006488DF831408DF830C06946A83828
:104ED000FBF7C1FF0DB0BDE8F083000070020020B9
:104EE00070B51E46044603460548049DFCF7D4F8F9
:104EF00023462A463146BDE870400148FCF7F6B823
:104F0000C801002030B52A4887B00021026842F06D
:104F100040020260026802F040020592026842F418
:104F2000807202600068234C00F48070059040207D
:104F3000CDE900010120029003200390694620463C
:104F4000FBF758FE84201C4D009069462846FBF76D
:104F500051FE40212046FBF73BFF04460421284632
:104F6000FBF736FF44EA400480212846FBF730FF78
:104F700044EA8000C0B2062817D2DFE800F0030739
:104F80000A0D101344F2423007B030BD47F28400DE
:104F9000FAE747F21600F7E747F21800F4E744F2A1
:104FA0008430F1E741F21800EEE70020ECE7000062
:104FB000303802400018024000200240F0B504687A
:104FC0008B88E568C5F30B452B441D04882303EB50
:104FD000C213E65806F47046E65004680F68E668A7
:104FE000C6F30B46761C3E442E43E65003688C897C
:104FF000DD68C5F30A052C4425048C2404EBC21497
:105000001E5906F470461E5103688F68DE68C6F3A9
:105010000A06761C3E442E431E519423046803EB7B
:10502000C213E55825F00705E55005680C69EC50FA
:1050300091F8313005681F0291F832301C040B7E64
:105040001E069C2303EBC21355F803C04FF0000C5F
:1050500045F803C091F8305034433D43254304687C
:10506000E5509823046803EBC213E55825F0FF05CB
:10507000E55005684C69EC50A023046803EBC213AB
:10508000E55840F20776B543E550D1E907452C4392
:105090000568EC50AC23046803EBC213E55844F8F0
:1050A00003C005684C6AEC500B698BB3012B32D0FE
:1050B000042B32D0022B30D0032B2ED0072B2CD038
:1050C0000123B024056804EBC2142E5906F0E02633
:1050D0002E51D1E90065AD1B0E8D5D435E43ED1C85
:1050E00045EA064305682B51B423046803EBC21359
:1050F000E5586FF30A05E5500468C96AE150006895
:10510000842101EBC211425842F001024250F0BD2D
:10511000FFE70423D5E70323D3E70223D1E7000009
:105120000B480A4901604FF48031416000218160E1
:10513000C1600161416101228161C0E90821054A24
:10514000C0E90A120163C161FBF797BC002001406E
:10515000900200200100000FFEE770470907090ECA
:10516000002806DA00F00F0000F1E02080F8141D9E
:10517000704700F1E02080F800147047704700008D
:1051800000B5164887B014490022C0E90012012179
:10519000816008211023C0E90313402343614FF4C9
:1051A000C073C0E906320A0202624A0242628A02FF
:1051B00082620220CDE9000106210291CDE90310AF
:1051C0000590069069460548FCF7A6FC034800F0E8
:1051D00007F807B000BD0000400100A094010020C6
:1051E00010B5002301221146184600F021F84FF4B3
:1051F000FA7000F081FA002301220221184600F023
:1052000017F8002308220321184600F011F84FF484
:105210000C7301220421002000F00AF8BDE81040C0
:1052200040F2AB210148FCF707BD000094010020CB
:105230001FB5002410B1012802D002E0102400E0C4
:105240000824CDE90014CDE902234FF480526946C9
:105250000348FCF702FD002800D0012004B010BD77
:10526000940100207047000070B51E4C92B00025DC
:10527000266846F080562660246804F08054119415
:10528000194C266846F44046266024680DF1240C2B
:1052900004F44044119401240094019402240694DF
:1052A0008CE80D006605CDE907616846FCF7A6FAB3
:1052B00000B1FEE7FBF786FF00B1FEE70CA90F2067
:1052C00081E831004FF4A0500F904FF480501090BF
:1052D00005210CA8FCF70EF9002800D0FEE712B05B
:1052E00070BD00004038024000700040FBF780BDF8
:1052F0001048016841F4700101600F48016841F0F5
:10530000010101600C4A00210832116002680B4B58
:105310001A400260031D0A4A1A60026822F48022C1
:10532000026005480C300160024958068039086067
:105330007047000088ED00E000380240FFFFF6FEF5
:105340001030002410B590F83910222903D03229EA
:1053500001D0022010BD8168B1F5805F11D00169D4
:10536000002901681FD0496801F07F03816A4A1C47
:1053700082620B70C18D491E0904090CC18518D0C9
:105380002FE00269816A002A0268526805D0D2B211
:105390000A80816A491C8162ECE7C2F308020A8034
:1053A000816A891CF7E74A68816A4B1C83620A702C
:1053B000E0E70168CA6822F02002CA6090F839105C
:1053C000322910D00168CA6822F48072CA6001686C
:1053D0004A6922F001024A61012180F83910FCF784
:1053E00034FE002010BD1221F7E700002DE9F04146
:1053F000044600680169E26821F440510A430261F1
:105400002068C16849F20C6291432369A268E5698A
:105410001A4363692B431A430A43C26020684169F7
:1054200021F44072A16911434161E069642632258B
:10543000B0F5004F484A494920681DD0884201D044
:10544000904269D1FCF78AF900EBC00101EB001032
:105450006168B0468900B0FBF1F1B1FBF8F6FCF7EA
:105460007DF900EBC00101EB001061688900B0FB21
:10547000F1F7FCF773F968E0884201D0904219D146
:10548000FCF76CF900EBC00101EB00106168B0465D
:105490004900B0FBF1F1B1FBF8F6FCF75FF900EB66
:1054A000C00101EB001061684900B0FBF1F7FCF7A7
:1054B00055F918E0FCF73CF900EBC00101EB0010D6
:1054C0006168B0464900B0FBF1F1B1FBF8F6FCF7BA
:1054D0002FF900EBC00101EB001061684900B0FB3F
:1054E000F1F7FCF725F900EBC00101EB0010616852
:1054F0004900B0FBF1F1B1FBF8F06FF0180148433F
:1055000007EB800005EB0011B1FBF8F0216866F3B2
:105510001F108860BDE8F081FCF70AF900EBC001BC
:1055200001EB00106168B0468900B0FBF1F1B1FBFE
:10553000F8F6FCF7FDF800EBC00101EB0010616824
:105540008900B0FBF1F7FCF7F3F800EBC00101EBC9
:10555000001061688900CCE7001401400010014090
:1055600090F83910122903D0322901D00220704757
:105570008168B1F5805F016A0BD04A1C0262026843
:1055800009785160C18C491E0904090CC1840ED0F0
:1055900017E009880268C1F3080151600169002918
:1055A000016A02D0491C0162ECE7891CFBE7016833
:1055B000CA6822F08002CA600068C16841F04001F8
:1055C000C160002070472DE9F0471D4690460F4608
:1055D0000446FBF707FC06465FEA08004FF00009A7
:1055E0004FF0010808D030E0681C05D095B1FBF7FA
:1055F000F9FB801BA8420DD82068006837EA00003C
:10560000F2D127E0681C20D025B1FBF7EBFB801B13
:10561000A8421AD92068C16821F08001C1602068C1
:10562000C16821F02001C1602068C16821F4807147
:10563000C1602068416921F00101416184F839802D
:1056400084F838900320BDE8F0872068006837EAC6
:105650000000D7D00020F6E738B518480068006889
:10566000C043800622D44FF47A730122694613485E
:10567000FCF786FC124A1088010417D441049DF8F7
:1056800000104FF0000304D50A290ED140F4004069
:1056900012E00D290ED0C0F30D04084D401CC83D8A
:1056A00080B229551080C72800D913800348FCF721
:1056B00074FB38BD40F480401080F7E7F400002010
:1056C0001C000020FEE7704710B504460420FCF7DC
:1056D00043FB0148046010BD1800002070B505466A
:1056E00000244FF47A7603E0304600F005F8641C9D
:1056F000AC42F9D370BD000070B54FF0E025002139
:105700006C69094AAB6912685043AA699A42FCD095
:1057100002D2A3EB020302E0A4EB020633441944D5
:1057200013468142F1D370BD1800002003490A6876
:105730005206FCD5C2B24A6070470000001001401A
:10574000FBF75EFB0823022219214FF4B470FFF728
:105750008BFDB420FFF7B8FF4FF4E13000F010F8F4
:10576000FFF7E4F9FCF774FCFFF70AFDFCF744FDD2
:10577000FFF7D6FC01210520FBF7BAF8FAE7000095
:105780000749064AC1E9002000208860C860086116
:1057900088610C2048610846FCF779BB0010014085
:1057A000F40000204FEA1153A3F58063D3F11E03E8
:1057B000A8BFD3F1200C08DB4FF0004242EAC1221F
:1057C00052EA505232FA03F0704709420BD4102BC0
:1057D000C4BF0020704703F5787CBCF1FF3F05D0C3
:1057E0004FF0FF3070474FF00000704770B500F089
:1057F000C3F800BF4992248000207047F0E7B0FA58
:1058000080F310FA03F10AD0C3F11D0303F580639E
:105810004FEA41504FEA035202EBD12170474FF05B
:1058200000007047DFF848C170B51CEA111E1EBFAA
:105830001CEA13159EEA0C0F95EA0C0F00F06F801E
:1058400081EA030423EA4C134EEAD47E21EA4C1188
:1058500041F4801143F48013AE44A1FB024CA0FB41
:105860000365AEF17F7E361955EB0C05A1FB034CA9
:105870004CF10003A0FB021C16EB0C06654153F132
:105880000003094218BF46F0010613F4007F0BD154
:105890004FEA03314FEA0530340341EA155140EA3B
:1058A00016506FF003020AE04FEAC3214FEAC52009
:1058B000F40241EA555140EA56506FF0020202EB01
:1058C0002E4201EB025585EACE710AD05FEA440C04
:1058D00018BF24F0004450F1000041F1000120EA1B
:1058E000D47040F2FE7C624500D270BDA84214BF65
:1058F0004FF080444FF04044002E08BF0024BEF11A
:10590000806FA8BFA1F1C041BDE8704080F28280E5
:105910004FF0000001F1C04101F0004170479EEAE4
:105920000C0F0CEA131518BF95EA0C0F06D04FF0B8
:10593000000081EA030E0EF0004170BD00F01CF87B
:105940008900013E00F007B800F009B84FEA430CA7
:105950005FEA5C5C08D081EA030100F05BB84FEAC3
:10596000410C5FEA5C5CF6D14FF0000001497047E2
:105970000000FF070000F87F0EF1020E2EF0030E6C
:105980005EF8046B364205D4012A43EB030515F596
:10599000001F12D8012841EB010C1CF5001F0CD888
:1059A0000ED14FEAD17C15F5001F0CEB4C0C0CF11D
:1059B000020C08BF4CEBD37C04E04FF0080C01E074
:1059C0004FEAD37C0CEB4C0526FA05F606F00706E9
:1059D000B6F1040C06D20EEB860CBDE870404CF01C
:1059E000010C6047DFE80CF0090B02024FF00041A8
:1059F0004FF00000A1F5002170BD194610460128A6
:105A000051EB010418BFD4F5001484BF002001F04D
:105A1000004170BD0808A0F500114FEA3101704740
:105A20004FF04070E1EE100A7047000000000102E4
:105A30000304010203040607080930313233343508
:105A400036373839414243444546403058003031BA
:105A500032333435363738396162636465664030D5
:105A600078000000845A0008000000202C0000008C
:105A7000E8010008B05A00082C0000200C090000C2
:105A8000040200080024F4000000000000000000F0
:105A900001020304060708090000000000000000DE
:105AA00000000000000000000000000000000000F6
:04000005080001AD41
:00000001FF
